:020000040800F2
:1000000070060020350200088D1C0008891C0008BD
:100010008B1C0008171B0008991C0008000000003A
:10002000000000000000000000000000911C00081B
:10003000191B0008000000008F1C0008931C00081A
:100040004F0200084F0200084F0200084F0200084C
:100050004F0200084F0200084F0200084F0200083C
:100060004F0200084F0200084F0200084F0200082C
:100070004F0200084F0200084F0200084F0200081C
:100080004F0200084F0200084F0200084F0200080C
:100090004F0200084F0200084F0200084F020008FC
:1000A0004F0200084F0200084F0200084F020008EC
:1000B0004F0200084F0200084F0200084F020008DC
:1000C0004F0200084F0200084F0200084F020008CC
:1000D0004F0200084F0200084F0200084F020008BC
:1000E0004F0200084F0200084F02000800F002F81B
:1000F00000F090F80AA090E8000C82448344AAF132
:100100000107DA4501D100F085F8AFF2090EBAE82F
:100110000F0013F0010F18BFFB1A43F0010318473B
:10012000E81F000008200000103A24BF78C878C1FA
:10013000FAD8520724BF30C830C144BF04680C60ED
:10014000704700000023002400250026103A28BF35
:1001500078C1FBD8520728BF30C148BF0B60704739
:100160006E2900F04381702900F08D82662901F02C
:100170004987652901F04687672901F0438761298E
:1001800001F0428703681B0A28BF41F080016929FA
:1001900000F0F080642900F0ED80752900F0EA801D
:1001A0006F2900F01A82782900F05982E92900F0BD
:1001B000B581E42900F0B281F52900F0AF81EF2983
:1001C00000F01782F82900F058820368DB0928BF85
:1001D00041F08001632900F05B87732900F060879C
:1001E000E32900F06B87F32900F070870020704747
:1001F0001FB500F0BDFF04000020002101F0ECFE5F
:10020000401C60600020002101F0D0FEE0601FBDB6
:1002100010B510BD00F07EFF1146FFF7E9FF01F0B9
:1002200095FE01F05BF803B4FFF7F2FF03BC01F0A9
:10023000A3F800000948804709480047FEE7FEE7A9
:10024000FEE7FEE7FEE7FEE7FEE7FEE7FEE7FEE786
:1002500004480549054A064B70470000971C0008F2
:10026000ED000008700000207006002070020020E1
:10027000700200207CB51D4616460C00009001D08F
:100280002044401E074B7B442A4669460190304675
:1002900000F0C5F805461CB10020694600F0D2F810
:1002A00028467CBDC501000070477047704770B597
:1002B000044685690068C10601D5302600E0202685
:1002C000C00707D070BDD4E9012130469047206AAD
:1002D000401C20626D1EF6D570BD70B50446856960
:1002E0000078C00707D170BDD4E9012120209047D4
:1002F000206A401C20626D1EF6D570BD09684A0553
:1003000001D540B27047C905FCD500B270470968F5
:100310004A0501D5C0B27047C905FCD580B2704707
:1003200070B50C460546012A05D02878800600D510
:10033000EA69002302E0012305E05B1C934202D23C
:10034000E05C0028F9D1A869E618C01AA861286AFB
:10035000184428622846FFF7AAFF04E0D5E90121E6
:1003600014F8010B9047B442F8D32846FFF7B5FFC5
:1003700070BD00002DE9F041064600241068752983
:10038000314616A510D0FFF7B9FF002802DA404227
:1003900013A507E031688A0701D512A502E04907D5
:1003A00004D511A5012401E0FFF7B1FF00210A22C5
:1003B00006F1240709E0B0FBF2FCB0FBF2F302FB0C
:1003C0001C00303078541846491C0028F3D12346CD
:1003D0002A463046BDE8F04100F069BA000000004E
:1003E0002D0000002B0000002000000011680268B2
:1003F000006A530501D508700AE0D30501D50880CD
:1004000006E0130603D5C217C1E9000200E0086048
:100410000120704701694A1C02610878704700B5E5
:100420008FB0CDE901310021059105497944CDE92D
:1004300003101146684600F031F90FB000BD00000E
:10044000E5FFFFFF0A6802F8010B0A607047D1E977
:1004500000239A4202D2531C0B60107070470000B8
:100460002DE9FF5F15468A460446DFF8AC80F84464
:100470000027D8E900103E46CDE9001010E03AF818
:1004800016106A4602A800F025FE411C07D021780C
:10049000890603D5E269391891420DD80744761CC4
:1004A0002078800602D5E069B84205DDAE42E6DB81
:1004B0003AF816000028E2D1A069C01BA0612046CE
:1004C000FFF7F5FED8E90010CDE90010002017E095
:1004D0003AF818106A4602A800F0FCFDB0F1FF3FA0
:1004E00081460BD000250DF1080B05E0D4E9012170
:1004F0001BF8050090476D1C4D45F7D308F101002E
:10050000B0428046E4DB206A384420622046FFF790
:10051000E4FEBDE8FF9F00009A1B00002DE9F041BA
:100520008046D21D22F007020025D2E90002F529FB
:1005300015A614D0011E72F1000106DA0023D0EBDB
:10054000030063EB020211A608E0D8F800108B0745
:1005500001D50FA602E0490701D50EA601251146D7
:10056000002408F1240704E000F05CF930323A5529
:10057000641C50EA0102F7D12B4632462146404620
:10058000BDE8F04100F093B9000000002D0000002C
:100590002B0000002000000030B4002100F12404F2
:1005A00008E002F00705D208303542EA4372DB0862
:1005B0006554491C52EA0305F3D10468002310A2D4
:1005C000250707D5A40600D421B1C46901230DA2D3
:1005D000641EC46130BC00F06AB910B504462146FF
:1005E0001068FFF794FE02462046BDE81040002345
:1005F000D2E7D21D22F00701D1E90023CCE70000A9
:100600000000000030000000F0B40D46018809052C
:1006100002D5214C7C4402E01F4C7C440E34002166
:1006200000F1240608E002F00F071209E75D42EA34
:1006300003721B097754491C52EA0307F3D102786D
:100640000023120704D5702D06D009B102231134FE
:100650002246F0BC00F02BB901231034F8E770B546
:1006600004460D4621461068FFF751FE0246294612
:100670002046BDE870400023C6E7D21D22F00703E4
:10068000D3E90023C0E70368126843F02003036046
:100690000823C3610023B7E7FC1900002DE9F05FD0
:1006A000894604464FF0000ADFF874B1FB44C0F8F5
:1006B00020A02046E1688847002874D0252806D06D
:1006C000D4E901219047206A401C2062F1E700260E
:1006D0005F462046E16888472028054607DB312D24
:1006E00005D2781910F8200C08B10643F1E7B007DD
:1006F00001D526F00406C4F81CA00027C4F818A0F1
:100700002A2D09D0284601F0ECFA38B304EB87080B
:10071000303DC8F8185019E059F8041B204604EB86
:1007200087029161E1688847012F054618D1E06989
:10073000002820DA26F020061DE0D8F8180000EB8B
:10074000800005EB40003038C8F818002046E1680A
:100750008847054601F0C5FA0028EED1012F0AD0DE
:100760002E2D08D12046E16888477F1C0546022FC0
:1007700046F02006C4DBA069002803DA404246F0B8
:100780000106A061F00701D026F010066C2D0BD0F9
:10079000682D09D04C2D39D06A2D35D0742D35D027
:1007A0007A2D33D016E038E0E1682F46204688479E
:1007B000B842054609D16C2F26D04FF48060E1681D
:1007C000064320468847054604E06C2F1AD04FF4B4
:1007D000807006430DB3A5F14100192802D82035D9
:1007E00046F400664A462946204626604E46FFF7F4
:1007F000B7FC80B101280BD0F61D26F0070000F1F0
:10080000080956E74020E4E78020D8E70020D6E733
:1008100006F104094DE7284652E7206ABDE8F09F3B
:100820008C19000030B5B0F10A024FEA900E71F158
:1008300000034EEA817EB0EB0E0061EB91014FEABE
:10084000101E4EEA017E10EB0E0041EB11114FEA33
:10085000102E4EEA016E10EB0E0041EB11214FEA13
:10086000104E4EEA014E10EB0E0041EB11414018C4
:1008700041F100014FEAD00040EA41704FEAD10156
:1008800010EB80054FEA810444EA907444EB0104C4
:100890006D1944EB0404521BA3414FF0000348BF01
:1008A0000A3200D530BD401C41F1000130BD2DE9B8
:1008B000F0470D4699469246044600F12408016827
:1008C000880604D5E06921F01001216000E00120D4
:1008D000A84201DD471B00E00027A1697A1902EB5D
:1008E0000900081AA0612078C00602D42046FFF74C
:1008F000DEFC002608E0D4E901211AF80600904742
:10090000206A401C761C20624E45F4DB2078C0062D
:100910000AD52046FFF7CBFC06E0D4E901213020C0
:100920009047206A401C2062381EA7F10107F4DCC2
:1009300007E0D4E9012118F805009047206A401C1F
:100940002062281EA5F10105F3DC2046FFF7C5FC57
:100950002078000602D50220BDE8F0870120FBE7E1
:1009600070472DE9FF4F0C461E464FF0FF378BB006
:10097000D2E90001DDF860800A908A46C1F30A5589
:1009800005B93D46002108464FF00000BAF1000FBE
:1009900000F4400005DA00EB80004FF4400101EA6A
:1009A00050004FEA9059B9F1010F00DDB9460A989D
:1009B00050EA4A000ED044F61050A5F2FF354543E8
:1009C0002F14B8F1000F1ED07542291E1EDDC9F18B
:1009D00000021CE0B8F1010F4FF0000001D03021FF
:1009E00003E0F24305E02154401CB042FBDB3046FB
:1009F0000022002121540B99C1F80880C1E9002090
:100A00000FB0BDE8F08FBD1B6D1CDEE74A4600DA73
:100A1000694206A800F0F0FB06AB93E8070003ABC1
:100A200083E8070050460A9900F0ADFC8DE8070006
:100A3000A0F500501F3800900398002D0ADD42F207
:100A40001F014A460844002303A90390684600F0AA
:100A500016FF09E0A0F500504A461F38002303A9FD
:100A60000390684600F020FF8DE807000004000CAA
:100A700003D04FF0FF30410800E01046B8F1000FFE
:100A800003D00022009215461EE0751E05D4FFF724
:100A9000C9FE303262556D1EF9D5B34601220843B6
:100AA00002D000227F1C04E02078302801D10022EF
:100AB0007F1E002A099784D01DE0112D07DAFFF769
:100AC000B1FE303262556D1C50EA0102F5D1084387
:100AD00002D00098C8B10EE00021681E05E0235C3A
:100AE000625C63542254401E491C8142F7DBAB46D2
:100AF000A81B401E0990002004F80B000B98099ACF
:100B0000C0F80880C0E9002B7AE711264FF00008F2
:100B100057E72DE9F04F88460446D21D22F0070121
:100B200091B0D1E90001CDE90A0101F0B6F8024621
:100B30000B98C00F01D02D2007E02068810701D558
:100B40002B2002E0202101EAC000032A099001D0F5
:100B5000072A05DB03464146204600F00DFB0BE16A
:100B60002078800601D5E06900E00620B8F1650F25
:100B7000814606D0B8F1660F18D0B8F1670F70D172
:100B800031E00020B9F1110F009001DB112301E0E9
:100B900009F101030AAA01A90CA8FFF7E2FEDDE9A9
:100BA0000C70002609F10105834647E001204B4601
:100BB00000904FF000470AAA01A90CA8FFF7D1FE48
:100BC000DDE90DB00C995D46002610B909F1010070
:100BD0000D18B9EB050003D4C0F1FF3609F101058A
:100BE000A5EB09002BE0B9F1010F01DA4FF0010983
:100BF0000020B9F1110F0090484601DD112300E0FB
:100C000003460AAA01A90CA8FFF7ABFEDDE90C70A8
:100C10004D4600268346207800070AD4AB4500DA0B
:100C20005D4601A8012D04DD411911F8011C302990
:100C300007D04F4502DA17F1040F04DA012082468B
:100C40000FE06D1EEEE7002F02DCED1B3E4403E0DB
:100C5000781CA84200DD7D1CB81B00F1010A4FF092
:100C600000472078000703D4AA4501DB4FF0FF3A84
:100C70000021B7F1004F0DF143088DF8431024D047
:100C800002202B23002F01DA7F422D230A21021E8E
:100C9000A0F1010000DC5FB197FBF1FC97FBF1F2E2
:100CA00001FB1C7C17460CF1300C08F801CDEEE777
:100CB000A8F1010003702188090501D5452100E054
:100CC0006521A0F1010800F8011C09980FA9A1EB0A
:100CD0000807FF1D00B10120411901EBEA70A1696D
:100CE0003844081A401EA0612078C00602D420466D
:100CF000FFF7DDFA099828B1D4E901219047206A6D
:100D0000401C20622078C00622D52046FFF7CFFA8B
:100D10001EE0002E04DBB34502DD01A8805D00E08B
:100D20003020D4E901219047206A401C2062761CC3
:100D3000AAF101005FEA000A0AD100F019FAC068BE
:100D40000168405CD4E901219047206A401C206280
:100D5000281EA5F10105DCDC07E0D4E9012118F823
:100D6000010B9047206A401C2062381EA7F1010742
:100D7000F3DC2046FFF7B1FA032011B041E6000092
:100D80002DE9F04F04460D46D21D22F0070089B030
:100D9000D0E900974846394600F07FFF0246F80F39
:100DA00001D02D2307E02068810701D52B2302E025
:100DB000202101EAC0038DF820300BB1012000E0B2
:100DC0000020032A824601D0072A04DB2946204658
:100DD00000F0D2F93FE12078800601D40D2500E033
:100DE000E569C7F30A560D2D49DA00214FEA175B72
:100DF00008464FF00000002F00F4400007DA00EB37
:100E000080004FF4400100EBD07001EA60008115D2
:100E1000012901DD4FF0FF3100224FEA850CBCF1C2
:100E2000180F06D31346ACF118004FF08052C240A1
:100E300003E04FF4801323FA0CF30CF10C0CBCF11B
:100E4000200F04D3ACF1200C09FA0CF001E007FAF2
:100E50000CF000294FF0004801DD18B90FE00ED169
:100E600040450CD319EB02095F4121B9404502D13D
:100E70009F4329EA0209BBEB175F00D0761C20884C
:100E8000000502D57B48784402E07A487844193856
:100E900008AA302302F80A30037C0AF10101002E6F
:100EA0000AF1020A53546A4602DC4FF0300101E0B5
:100EB0004FF031014FF001088DF8001002D0A6F27A
:100EC000FF3603E059EA470100D06B4E002D02DCEB
:100ED0002178090704D54FF002082E218DF8011062
:100EE000C44600210BE0C7F303433F01C35C491C28
:100EF0006D1E02F80830052908F1010801DA002DFD
:100F0000F1DC00210CE000EB1973491C1B786D1E0D
:100F1000082902F808304FEA091908F1010801DA36
:100F2000002DF0DC21688B0602D516E0A8F101083F
:100F3000E04505DD02EB080313F8013C302BF5D04A
:100F4000B8F1000F09DD02EB080313F8013C2E2B6A
:100F500003D1090701D4A8F10108002D05DD3E21C8
:100F600002F808106D1E08F10108407C002E02F8FE
:100F7000080008F1010804DA2D20764202F8080082
:100F800002E02B2002F808000A214FF47A70864212
:100F900008F101080BDB96FBF0F3303302F8083060
:100FA00096FBF0F308F1010800FB136601E0642EE4
:100FB0000CDB642096FBF0F3303302F8083096FB2C
:100FC000F0F308F1010800FB136601E00A2E06DBCE
:100FD00096FBF1F0303002F8080008F1010896FBAA
:100FE000F1F001FB1060303002F80800A16908F14F
:100FF000010808EB050202EB0A00081AA06120783C
:10100000C00602D42046FFF752F9216A08AE01EB70
:101010000A00206204E0D4E9012116F8010B904790
:10102000BAF1010AF7D22078C00602D52046FFF7B0
:101030003EF96E4609E016F8010B3E280FD0D4E9C0
:1010400001219047206A401C2062B8F10108F2D2C9
:101050002046FFF742F909B00320BDE8F08F206A6F
:101060002844206203E0D4E90121302090476D1E1E
:10107000EBD3F8E7D611000002FCFFFF10B543697F
:1010800013B1AFF3008001E0FFF74AF9012010BD72
:10109000127800F124010A7000224A700122EDE763
:1010A00011684FF0FF32E9E710B5436913B1AFF3B0
:1010B000008001E0FFF7D4F9012010BD128800F193
:1010C000240182840022C2840122EDE711684FF0DE
:1010D000FF32E9E770B516460C46054600F040F8C9
:1010E000036893F80101012806D0FF2C0FD8185D82
:1010F00068B101202C7070BDD3F80701324621463B
:1011000003F2071303442846BDE8704018474FF028
:10111000FF3070BD754600F0EBF8AE46050069463D
:10112000534620F00700854618B020B5FFF790F829
:10113000BDE820404FF000064FF000074FF00008D8
:101140004FF0000B21F00701AC46ACE8C009ACE859
:10115000C009ACE8C009ACE8C0098D467047000082
:1011600010B500F005F8001D10BD00BF6D0E0000A9
:1011700000487047300000202DE9F0411F4604462A
:1011800003260168072A01F4006004DB08B116A5F4
:1011900005E016A503E008B115A500E015A521F0AE
:1011A00010002060A069C01EA0610FB1401EA061A8
:1011B0002046FFF77CF84FB1D4E90121384690472B
:1011C000206A401C2062C01C206206E0206AFAE708
:1011D000D4E9012115F8010B9047761EF8D220467C
:1011E000FFF77BF8BDE8F0814E414E006E616E0066
:1011F000494E4600696E66002DE9F0478146164665
:101200008AB0354878440DC88DE80D0032487844DE
:10121000801C03AC0DC884E80D0041F69B300844E7
:10122000372190FBF1F290FBF1F5A5F1800501FB70
:1012300012041B3C02D56442012000E00020DFF8CC
:1012400098A080460027FA44AAF1BE0A0EE0E00703
:101250000AD03246684607EB470101230AEB8101B9
:1012600000F022FB8DE8070064107F1C002CEED1FB
:10127000194F7F44AE3F19E0E80715D007EB041083
:101280000DF1180A90E80E008AE80E00C068F042DE
:1012900001D1981908903246012306A903A800F04D
:1012A00003FB03AB83E807006D10641C002DE3D142
:1012B0004FF0010332466946B8F1000F03A802D08F
:1012C00000F0DDFA01E000F0EFFAC9E90001C9F829
:1012D00008200AB0BDE8F087E80E000010B504460B
:1012E000AFF300802046BDE81040FEF79CBF000031
:1012F00000487047100000204FF0013C50F8042BCC
:1013000051F8043B9A4221D1A2EB0C03934313EA18
:10131000CC1317D150F8042B51F8043B9A4215D145
:10132000A2EB0C03934313EACC130BD150F8042B1C
:1013300051F8043B9A4209D1A2EB0C03934313EA00
:10134000CC13DBD04FF00000704700BFD01A01BAB9
:10135000B1FA81F101F0180122FA01F0CB40C1F19C
:101360002001DBB2C0B2C01A2CFA01F3D11A9143AA
:1013700011EAC311E6D1704701491820ABBEFEE760
:101380002600020070475FEA400C08BF91F0000F92
:101390004FEA8C234FEAC12243EA51514FEA1C50D5
:1013A00018BF00F5F0404FEA300018BF41F000418F
:1013B0005FEA6C5C00F02980BCF1FF3F08BF40F0A1
:1013C00080407047130C06BF12044FF0100C4FF012
:1013D000000C130E04BF12020CF1080C130F04BF13
:1013E00012010CF1040C930F04BF92000CF1020CDB
:1013F000D30F04BF52000CF1010C11464FF0000254
:10140000A0F11F00A0EB0C00704711F0004F08BFC7
:10141000704731F000413FF4D5AF0B0C06BF090413
:101420004FF0100C4FF0000C0B0E04BF09020CF132
:10143000080C0B0F04BF09010CF1040C8B0F04BF47
:1014400089000CF1020CCB0F04BF49000CF1010C18
:10145000CCF12003A0EB0C0022FA03F302FA0CF209
:1014600041EA030100F10100704720F07F4C80EA5F
:10147000030023F07F47ACEB070303F57C5300F038
:10148000004003F1FF032DE980494FEA154B09B4F1
:101490004FEA144325EA0B4E24EA03480FF20426D0
:1014A00006EB132749083E785FEA320203FB066722
:1014B000C7F5000707FB06F64FEA54374FEAD64652
:1014C00006F1020607FB066CCCF1005C4FEA1C47F4
:1014D0002CEA074C07FB06F40CFB06F504EB15465B
:1014E0004FEA961634BF00204FF000404FEAD13744
:1014F00006FB07FC4FEA1C4C0CFB0BF7D21B03FB53
:101500000CF761EB07010CFB0EF7B0EB074072EB39
:1015100017420CFB08F734BFA2EB0742B2EB0742BD
:1015200061EB17414FEA0C444FEA910706FB07FCB9
:101530004FEA1C4C0CFB0BF7B0EBC74072EB573279
:1015400003FB0CF734BFA2EBC742B2EBC74261EB1F
:1015500057310CFB0EF7B0EBC70072EB57720CFB68
:1015600008F734BFA2EBC702B2EBC70261EB5771B9
:10157000039F4FEA816141EA921104EBCC044FEAE8
:10158000D1374FEA826206FB07FC42EA90124FEA2B
:1015900080604FEA1C4C0CFB0BF7D21B03FB0CF7D3
:1015A00061EB07010CFB0EF7B0EB074072EB174243
:1015B0000CFB08F734BFA2EB0742B2EB074261EB2A
:1015C00017414FEA8C554FEA910704EB9C2406FB28
:1015D00007FC4FEA1C4C0CFB0BF7B0EBC74072EB5F
:1015E000573203FB0CF734BFA2EBC742B2EBC74242
:1015F00061EB57310CFB0EF7B0EBC70072EB577283
:101600000CFB08F734BFA2EBC702B2EBC70261EBD9
:10161000577115EB4C254FEA816141EA92114FEA6F
:1016200082624FEAD13742EA901206FB07FC44F18E
:1016300000044FEA80604FEA1C4C0CFB0BF7D21BF6
:1016400003FB0CF761EB07010CFB0EF7B0EB074057
:1016500072EB17420CFB08F734BFA2EB0742B2EB68
:10166000074261EB174115EB1C154FEA813141EA46
:1016700092414FEA823242EA90424FEA80304FEA8A
:101680000C7644F1000448EA03434EEA0B484FF05D
:10169000000EB2EB080C71EB030724BF624639461B
:1016A0004EEB0E0E4FF0000B0018524149414BEB30
:1016B0000B0BB2EB080C71EB03077BF1000B24BFA3
:1016C000624639464EEB0E0E4FF0000B00185241A9
:1016D00049414BEB0B0BB2EB080C71EB03077BF1B1
:1016E000000B24BF624639464EEB0E0E51EA02074C
:1016F00018BF46F0010616EB0E7655F1000254F1C4
:10170000000103D5BDE88901BDE80088BDE8890175
:10171000BDE80048B619524141EB0101A3F10103B4
:10172000704780807F7E7D7C7B7A7978777676754E
:101730007473727171706F6E6E6D6C6C6B6A6A69C6
:101740006868676666656464636362616160605F60
:101750005F5E5E5D5D5C5C5B5B5A5A5959585857D9
:101760005756565555555454535352525251515041
:1017700050504F4F4F4E4E4D4D4D4C4C4C4B4B4B94
:101780004A4A4A49494948484847474747464646DA
:101790004545454444444443434343424242424115
:1017A0004141002B9C4630D477002BD01CB54FEA2A
:1017B000370703B44FF010004FF01001BAF1000FDB
:1017C00006D0BCF1000FDCBF40F0080040F008017B
:1017D0004FF000000FBCBDE810400BF1010BBBF156
:1017E000010F08BF5FEA170722BF12F1010211F1D2
:1017F00001014FF0004143F1000300F0004043EAD3
:1018000000007047F9D35708D0E746EA064613F1BF
:10181000400F4FEA16461FDD13F1200FDFBF1643BE
:101820000A46002120335B42BED0C3F1200746EABE
:10183000064602FA07F74FEA164646EA0706C3F1DC
:10184000200722FA03F201FA07F721FA03F14FF019
:10185000000342EA0702A7E746EA020646EA06460E
:101860004FEA164646EA0106BCBF46EA0646360C73
:101870004FF000034FF000024FF0000194E72DE914
:10188000804C9A46934670B491E8380007C831EA14
:10189000400C48BF34EA430C03D5FFF7E6FDFFF7E1
:1018A00080FFF0BCBDE8008C2DE9804C9A46934641
:1018B00070B491E8380007C810F0804F08BF13F0EB
:1018C000804F03D100F005F8FFF76BFFF0BCBDE8D7
:1018D000008C20F07F4780EA030023F07F4C07EB69
:1018E0000C03A3F57C5300F00040A3F1FE0392F03B
:1018F000000F00F0B38095F0000F00F077802DE925
:1019000001494FEA11404FEA144621EA004800FB22
:1019100006FC24EA064708FB06F607FB08F800FB6E
:1019200007F718EB06484CEB164C4FEA124B18EB36
:1019300007484FEA15464CEB174022EA0B4E0BFBCB
:1019400006FC25EA06470EFB06F607FB0EFE0BFB20
:1019500007F71EEB064E4CEB164C4FF000061EEB45
:10196000074E4CEB174B18EB0B0840F1000018EB3F
:101970000E0B58EB000840F100008F1A4FF00001E9
:101980003CBFC943661B14BFB5EB040C00213CBF30
:10199000C943F61B4FEA17444EEA8E0E27EA044568
:1019A0004FEA1C4704FB07622CEA074C05FB07F7CC
:1019B0000CFB05F604FB0CFC16EB074642EB17424A
:1019C00016EB0C4642EB1C421BEB060658EB0202E0
:1019D000414146EA9E0601D5BDE80189B61952414A
:1019E00041EB0101A3F10103BDE801894FEA144570
:1019F0004FEA114724EA054621EA074C05FB07F4A4
:101A000006FB07F70CFB06F105FB0CFC11EB07418D
:101A100044EB17444FEA124711EB0C4144EB1C44D2
:101A200022EA074C05FB07F206FB07F70CFB06F65C
:101A300005FB0CFC16EB074642EB174216EB0C4677
:101A400042EB1C456A1854F1000148BF7047B619B3
:101A5000524141EB0101A3F10103704795F0000FE2
:101A600037D04FEA11424FEA144721EA024624EAEE
:101A7000074C02FB07F106FB07F70CFB06F402FB21
:101A80000CFC14EB074441EB17414FEA154714EBEC
:101A90000C4441EB1C4125EA074C02FB07F506FB11
:101AA00007F70CFB06F602FB0CFC16EB074645EBB2
:101AB000174516EB0C4645EB1C42121951F100017B
:101AC00048BF7047B619524141EB0101A3F1010330
:101AD00070474FEA14454FEA114724EA054621EAC8
:101AE000074C05FB07F106FB07F70CFB06F24FF06E
:101AF000000605FB0CFC12EB074241EB174112EB11
:101B00000C4251EB1C4148BF7047921841EB010158
:101B1000A3F101037047FEE77047000070B504466B
:101B200000F00EF80546601C02D00448007804441A
:101B300000F006F8401BA042FAD370BD0000002060
:101B4000014880687047000000000020024881685A
:101B5000027811448160704700000020074810B5EA
:101B6000016841F010010160032000F067F80F20C8
:101B700000F006F800F024F8002010BD002002401C
:101B800070B50D4D04464FF47A712878B1FBF0F032
:101B90000A490968B1FBF0F000F062F848B9102C6E
:101BA00007D200222146501E00F028F800206C6069
:101BB00070BD012070BD0000000000200C0000205E
:101BC0000C4808B5816941F001018161816901F02A
:101BD00001010091C16941F08051C161C06900F00B
:101BE000805000900448416821F0E06141F00071AC
:101BF000416008BD0010024000000140F0B40E4BEF
:101C00001B680C46C3F30223C3F10705042D00D95A
:101C10000425191D072901D2002300E0DB1E01263F
:101C200006FA05F1491E214099409E40761E164055
:101C30003143F0BC00F045B80CED00E0064900F07F
:101C4000070208684FF6FF03184040EA0220034AE3
:101C500010430860704700000CED00E00000FA053A
:101C600010B5401EB0F1807F01D3012010BD4FF0B0
:101C7000E02460610F21601700F023F80020A061CC
:101C800007202061002010BDFEE7FEE7FEE7704759
:101C90007047FFF75BBF7047FEE7490050EAC1207D
:101CA00018BF04204A0D18BF40F0010040F2FF7237
:101CB000B2EB515F08BF40F00200012808BF0520C9
:101CC00070470907090E002804DB00F1E02080F8C6
:101CD0000014704700F00F0000F1E02080F8141DA0
:101CE000704730380A2801D2012070470020704721
:101CF00030B5114C22689207FCD40F4B183B1A6880
:101D000042F480721A600C4A121F1568ED07FCD06D
:101D100045000948083805601568AD07FCD52468FA
:101D200014682406FCD5016010684007FCD51868CB
:101D300040F40070186030BD1854004038B5174AA0
:101D4000002116481432036843F48073036013685B
:101D5000DB07FCD0114C4B00103423600F4B1833C1
:101D60001468BCB100241D68B5B100252C43F7D11F
:101D7000036843F40073036000234FF47A74009304
:101D80005B1C0093A342FBDB1368491CC9B280298A
:101D9000D9D338BD0124E6E70125E7E70054004028
:101DA0001B49886940F0080088611A48026842F0BF
:101DB00040720260026842F040620260026842F0D3
:101DC00040520260026842F040420260886940F07E
:101DD00001008861C86940F40010C8610E480168BC
:101DE00021F03F010160016841F0080101600A49EA
:101DF00009201C310860081F016841F028010160BA
:101E00000548001F016841F00101016070470000B2
:101E100000100240000C014004540040012000F07A
:101E200040B8000010B501280BD04031C8B240F0D6
:101E3000800000BF00F035F8BDE810400220FFF739
:101E40006DBE8031C8B2F5E710B5332000F029F837
:101E5000322000F026F83220FFF760FE282000F044
:101E600020F83220FFF75AFE012000F01AF8322045
:101E7000FFF754FE062000F014F83220FFF74EFE64
:101E80000C2000F00EF83220FFF748FE022000F090
:101E900008F83220FFF742FEBDE810408020AFF383
:101EA000008038B500F0F00141F00C0200018DF81F
:101EB000002041F008018DF8011040F00C018DF870
:101EC000021040F008008DF8030000246D46272022
:101ED000295DFFF70DFF641CE4B2042CF7D338BD75
:101EE00038B500F0F00141F00D0200018DF800203E
:101EF00041F009018DF8011040F00D018DF802103C
:101F000040F009008DF8030000246D462720295D6C
:101F1000FFF7EEFE641CE4B2042CF7D338BD0FB417
:101F2000142100B585B007AB6846069AFEF7A2F902
:101F3000CDF818D003E0491C0691FFF7D1FF0699B0
:101F400008780028F7D105B05DF814FB10B5FFF74D
:101F500005FEFFF725FFFFF7F1FEFFF775FF642091
:101F6000FFF7DCFDFFF75AFF05210120FFF75AFFBD
:101F70006420FFF7D3FD07A0FFF7D1FF0021022067
:101F8000FFF750FF6420FFF7C9FD05A0FFF7C7FF6B
:101F9000002010BD5472616E672074686169000092
:101FA00042696E68207468756F6E670010B500290D
:101FB0000AD00878002807D005487844FFF79CF934
:101FC000002801D0002010BD0248784410BD000058
:101FD0006E0100006601000010B500290AD00878E3
:101FE000002807D005487844FFF786F9002801D07B
:101FF000002010BD0248784410BD00005E010000C2
:1020000056010000FEF785BDFEF7BABE00000000D5
:102010000000000030313233343536373839414230
:10202000434445464030580030313233343536373A
:1020300038396162636465664030780004000008E6
:1020400000000000000000020001000010303132EA
:1020500033343536373839616263646566787000C9
:1020600030313233343536373839414243444546CE
:102070005850000002400000000000A000000000D6
:1020800005400000000000C8000000000C400000F7
:102090000000409C00000000194000000020BCBE71
:1020A0000000000034400000BFC91B8E0000000487
:1020B000B5400000504BCFD06607E2CF01000000D2
:1020C0006C4100003E8251AADFEEA73401000000FF
:1020D000D9420000DCB5A0E23A301F97FFFFFFFFB6
:1020E000B4450000FD25A0C8E9A3C14FFFFFFFFFD5
:1020F000FF3F00000000008000000000FF3F0000E4
:1021000000000080000000005422000800000020B1
:1021100010000000280100086422000810000020C0
:1021200060060000440100081C000000430000009D
:10213000F8FFFFFF0C0000000E0000000F00000081
:102140002E0000001001000043000000F8FFFFFF18
:1021500000404040404040404040414141414140BA
:10216000404040404040404040404040404040406F
:1021700040050202020202020202020202020202FE
:102180000220202020202020202020020202020203
:10219000020290909090909010101010101010105B
:1021A0001010101010101010101010100202020267
:1021B00002028888888888880808080808080808AB
:1021C00008080808080808080808080802020202A7
:1021D00040000000000000000000000000000000BF
:1021E00000000000000000000000000000000000EF
:1021F00000000000000000000000000000000000DF
:1022000000000000000000000000000000000000CE
:1022100000000000000000000000000000000000BE
:1022200000000000000000000000000000000000AE
:10223000000000000000000000000000000000009E
:10224000000000000000000000000000000000008E
:10225000000000000100000010000000000000006D
:042260000024F40062
:04000005080000ED02
:00000001FF
